:100000000C944A000C9469000C9469000C946900EB
:100010000C9469000C9469000C9469000C946900BC
:100020000C9469000C9469000C9469000C946900AC
:100030000C9469000C9469000C9469000C9469009C
:100040000C9469000C9469000C9469000C9469008C
:100050000C9469000C9469000C9469000C9469007C
:100060000C9469000C9469000C9469000C9469006C
:100070000C9469000C9469000C9469000C9469005C
:100080000C9469000C9469000C9469000C9469004C
:100090000C94690011241FBECFEFD0E1DEBFCDBFAD
:1000A00011E0A0E0B1E0ECE1F1E000E00BBF02C044
:1000B00007900D92A030B107D9F711E0A0E0B1E0B0
:1000C00001C01D92A033B107E1F70E946B000C94B0
:1000D0008D000C94000081E090E0909301018093EA
:1000E0000001909303018093020142E050E0FA0185
:1000F000EE0FFF1FE050FF4F3497808191813496BF
:10010000329122913296820F931F918380834F5FA9
:0C0110005F4F4831510558F3E8CFFFCF96
:00000001FF
